:100000000C942A000C9447000C9447000C94470071
:100010000C9447000C9447000C9447000C94470044
:100020000C9447000C9447000C9447000C94470034
:100030000C9447000C9447000C9447000C94470024
:100040000C9447000C9447000C9447000C94470014
:100050000C94470011241FBECFE5D8E0DEBFCDBF12
:1000600010E0A0E6B0E0E2EAFAE002C005900D92EE
:10007000A23AB107D9F710E0A2EAB0E001C01D92A0
:10008000A43AB107E1F70E94A2010C944F050C9429
:10009000000084EA86BF06B607FEFDCF089583B947
:1000A00084E886BF06B607FEFDCF0895880F0E943C
:1000B0004F00089584E986BF0895FF920F931F9320
:1000C000182F062F0E94490087E20E945600F12E49
:1000D000F694F694F694F6941F70002341F4809100
:1000E000A3008E7F8093A3000E944F0007C08091E1
:1000F000A30081608093A3000E944F000091A300A1
:100100000460802F0E944F00FF0CFF0CFF0CFF0CBF
:100110000F700F29802F0E944F000B7F802F0E94AD
:100120004F000460802F0E944F000F701295107FC7
:10013000102B812F0E944F00812F8B7F8093A30073
:100140000E944F000E945A001F910F91FF90089546
:100150001F93142F85B3836085BB81B18C7F81B9D8
:1001600082E180B90E94490087E20E9456008FEF29
:1001700096E7A1E081509040A040E1F700C0000068
:1001800084E00E944F0084E20E944F0080E280934E
:10019000A3000E944F00AFEDB5E11197F1F700C049
:1001A00000000E945A0088E260E00E945D008FED2E
:1001B00095E10197F1F700C00000812F8C6060E0AD
:1001C0000E945D00AFEDB5E11197F1F700C00000AE
:1001D0001F910895CF93DF93EC018881882339F034
:1001E000219661E00E945D0089918823D1F7DF911B
:1001F000CF910895EF92FF920F931F93DF93CF93C8
:1002000000D000D00F92CDB7DEB77B01FE01319652
:1002100025E0DF011D922A95E9F7009761F0FE01C4
:1002200036962AE030E0B9010E9447028293862F79
:10023000972F0097C1F7BFEFEB16BFEFFB0669F4EE
:100240002981222379F4FE01329600E010E00F5F4D
:100250001F4F21912223D9F307C005E010E00E19AA
:100260001F0902C000E010E0992324F48DE261E050
:100270000E945D000530110594F47E010894E11C94
:10028000F11CE00EF11EF70181917F01805D61E0BC
:100290000E945D000F5F1F4F05301105A4F30F9002
:1002A0000F900F900F900F90CF91DF911F910F91B2
:1002B000FF90EF900895843178F4623031F063302C
:1002C00031F0613029F4806403C08C5E01C08C5A27
:1002D000806860E00E945D00089581708093A200B4
:1002E000882349F0880F880F880F9091A300892BED
:1002F0008093A30005C08091A30087708093A30022
:100300000E94490087E20E9456008091A3000E944B
:100310004F000E945A00089581E060E00E945D0055
:100320008FED95E10197F1F700C00000089582E09C
:1003300060E00E945D008FED95E10197F1F700C04C
:1003400000000895AF92BF92CF92DF92EF92FF929A
:100350000F931F93DF93CF9300D000D00F92CDB7B0
:10036000DEB760EA76E881E090E040E00E94A80015
:100370008FEF90E7A2E081509040A040E1F700C0ED
:10038000000081E00E946D0180E060E00E945B015E
:1003900080E690E00E94EA0080E061E00E945B015C
:1003A00080E790E00E94EA008FEF97EAA1E6815093
:1003B0009040A040E1F700C000000E948C0180E066
:1003C00060E00E945B0180E00E946D018AE790E09E
:1003D0000E94EA008FEF97EAA1E681509040A0408A
:1003E000E1F700C00000DE011196EBE9F0E085E0E6
:1003F00001900D928150E1F700E010E07E01089439
:10040000E11CF11C0F2EF5E8CF2EF0E0DF2EF02DD1
:100410000F2EFAE8AF2EF0E0BF2EF02D81E00E9403
:100420006D0100D000D000D0EDB7FEB73196ADB76A
:10043000BEB71296FC92EE921197D382C2821583B8
:1004400004830E946E020F5F1F4F8DB79EB7069602
:100450000FB6F8949EBF0FBE8DBF0E948C0180E046
:1004600060E00E945B01C7010E94EA0080E061E059
:100470000E945B01C5010E94EA008FEF99EFA0E0A6
:1004800081509040A040E1F700C00000C7CF97FB2B
:10049000092E07260AD077FD04D00CD006D0002004
:1004A0001AF4709561957F4F0895F6F790958195B0
:1004B0009F4F0895AA1BBB1B51E107C0AA1FBB1F7A
:1004C000A617B70710F0A61BB70B881F991F5A95E0
:1004D000A9F780959095BC01CD010895AEE0B0E0FC
:1004E000E4E7F2E00C9426050D891E8986E08C83F2
:1004F0001A8309838FEF9FE79E838D839E01275E7A
:100500003F4FCE0101966F89788DA9010E9491021B
:10051000EF81F885E00FF11F10822E96E4E00C9435
:100520004205ACE0B0E0E7E9F2E00C9418056C019C
:100530001B018A01FC0117821682838181FFD1C1D0
:100540002E010894411C511CF6019381F10193FD89
:10055000859193FF81911F01882309F4BEC18532E3
:1005600039F493FD859193FF81911F01853229F420
:1005700090E0B6010E948E04E7CFEE24FF2420E035
:100580002032B0F48B3269F08C3228F4803251F092
:10059000833271F40BC08D3239F0803349F421601D
:1005A0002CC02260246029C0286027C0206125C09B
:1005B00027FD2CC0382F30533A3098F426FF08C05E
:1005C0008E2D880FE82EEE0CEE0CE80EE30E15C013
:1005D0008F2D880FF82EFF0CFF0CF80EF30E206203
:1005E0000CC08E3221F426FD78C1206406C08C3602
:1005F00011F4206802C0883649F4F10193FD859119
:1006000093FF81911F01882309F0BACF982F955449
:10061000933018F09052933028F40C5F1F4FFFE393
:10062000F9830DC0833631F0833771F0833509F0DB
:1006300060C022C0F801808189830E5F1F4F420194
:1006400071E0A72EB12C16C062E0662E712C600EF0
:10065000711EF8018080918026FF03C06E2D70E02E
:1006600002C06FEF7FEFC4012C870E9483045C01FE
:1006700083012C852F7717C052E0652E712C600EF8
:10068000711EF8018080918026FF03C06E2D70E0FE
:1006900002C06FEF7FEFC4012C870E9478045C01D9
:1006A0002C852068830123FD20C008C080E290E0F3
:1006B000B6012C870E948E04FA942C858F2D90E031
:1006C000A816B90698F311C0F40127FD859127FFFC
:1006D00081914F0190E0B6012C870E948E042C85F9
:1006E000F110FA940894A108B108A114B10461F7BB
:1006F000F1C0843611F0893649F527FF08C0F801AA
:1007000060817181828193810C5F1F4F09C0F80164
:1007100060817181882777FD8095982F0E5F1F4F2C
:100720004FE6B42EB22297FF09C090958095709540
:1007300061957F4F8F4F9F4FF0E8BF2AA2012AE0BB
:1007400030E00E94BA04782E741845C0853731F421
:100750003FEEB32EB2222AE030E025C099EFB92E49
:10076000B2228F36C1F0803720F4883509F0B5C049
:100770000DC0803721F0883709F0AFC002C020E1FA
:10078000B22AB4FE0BC084E0B82A08C0B4FE09C087
:10079000E6E0BE2A06C028E030E005C020E130E0F7
:1007A00002C020E132E0B7FE08C0F801608171812B
:1007B000828193810C5F1F4F07C0F80160817181B6
:1007C00080E090E00E5F1F4FA2010E94BA04782ED5
:1007D0007418FFE7BF22B6FE0BC02EEFB2227E14C4
:1007E00038F4B4FE07C0B2FC05C08FEEB82202C0D8
:1007F000A72C01C0AE2C8B2D90E0B4FE0DC0FE01E5
:10080000E70DF11D2081203319F4E9EEBE2209C065
:10081000A394B2FE06C004C086789070009709F0D9
:10082000A3948B2C9924B3FC14C0B0FE0FC0AF145A
:1008300028F4E72CEF0CEA18AF2C08C0E72C06C010
:1008400080E290E0B6010E948E04A394AF14C0F33E
:1008500004C0AF1410F4FA1801C0FF2484FE0FC0C6
:1008600080E390E0B6010E948E0482FE1FC081FEEC
:1008700003C088E590E010C088E790E00DC0C40197
:1008800086789070009791F081FC02C080E201C0F0
:100890008BE2B7FC8DE290E0B6010E948E0406C0A8
:1008A00080E390E0B6010E948E04EA947E14C0F3C7
:1008B0007A94F201E70DF11D808190E0B6010E946B
:1008C0008E047720A9F706C080E290E0B6010E946E
:1008D0008E04FA94FF20C1F737CEF60126813781C6
:1008E00002C02FEF3FEFC9012C96E2E10C943405D2
:1008F000FC010590615070400110D8F780959095EB
:100900008E0F9F1F0895FC016150704001900110EF
:10091000D8F7809590958E0F9F1F08950F931F9382
:10092000CF93DF938C01EB018B8181FF1BC082FF92
:100930000DC02E813F818C819D812817390764F479
:10094000E881F9810193F983E88306C0E885F98598
:10095000802F0995009731F48E819F8101969F83A6
:100960008E8302C00FEF1FEFC801DF91CF911F915F
:100970000F910895FA01AA27283051F1203181F111
:10098000E8946F936E7F6E5F7F4F8F4F9F4FAF4F97
:10099000B1E03ED0B4E03CD0670F781F891F9A1FAA
:1009A000A11D680F791F8A1F911DA11D6A0F711D5E
:1009B000811D911DA11D20D009F468943F912AE06A
:1009C000269F11243019305D3193DEF6CF01089552
:1009D000462F4770405D4193B3E00FD0C9F7F6CF83
:1009E000462F4F70405D4A3318F0495D31FD40524B
:1009F000419302D0A9F7EACFB4E0A69597958795E1
:100A000077956795BA95C9F70097610571050895BF
:100A10009B01AC010A2E069457954795379527956B
:100A2000BA95C9F7620F731F841F951FA01D089503
:100A30002F923F924F925F926F927F928F929F92EE
:100A4000AF92BF92CF92DF92EF92FF920F931F93DC
:100A5000CF93DF93CDB7DEB7CA1BDB0B0FB6F8948D
:100A6000DEBF0FBECDBF09942A88398848885F84CD
:100A70006E847D848C849B84AA84B984C884DF803E
:100A8000EE80FD800C811B81AA81B981CE0FD11D22
:100A90000FB6F894DEBF0FBECDBFED010895F894F8
:020AA000FFCF86
:100AA20048656C6C6F20576F726C642021212100A5
:100AB200476F6F64204C75636B004C6967687420E4
:100AC2004F46462100253036640048656C6C6F2C19
:100AD200204C49474854204F4E2100787878787846
:020AE200000012
:00000001FF
