:100000000C942A000C943F000C943F000C943F0089
:100010000C943F000C943F000C943F000C943F0064
:100020000C943F000C943F000C943F000C943F0054
:100030000C943F000C943F000C943F000C943F0044
:100040000C943F000C943F000C943F000C943F0034
:100050000C943F0011241FBECFE5D8E0DEBFCDBF1A
:1000600010E0A0E6B0E0E8E3F2E002C005900D92F7
:10007000A839B107D9F70E9410010C941A010C9409
:100080000000282F207F22BB929A20EA3FE0F9014E
:100090003197F1F79298F9013197F1F790E044E048
:1000A000880F991F4A95E1F782BB929AC90101977F
:1000B000F1F79298C9010197F1F7089520E040E423
:1000C0005CE9CA010197F1F72F5F2436D1F7089553
:1000D000282F207F22BB22B3256022BB20EA3FE0ED
:1000E000F9013197F1F79298F9013197F1F790E022
:1000F00054E0880F991F5A95E1F782BB82B385605F
:1001000082BBC9010197F1F79298C9010197F1F7F4
:10011000089580E69AEE0197F1F712BA12BA81B308
:10012000806F81BB81B3876081BB80E20E94410008
:1001300088E20E9441008CE00E94410081E00E9420
:10014000410086E00E9441000895CF93DF93EC01C7
:1001500003C021960E94680088818823D1F7DF912F
:10016000CF9108956F927F928F929F92AF92BF929C
:10017000CF92DF92EF92FF920F931F93CF93DF9373
:100180005C01CC24DD2403C00894C11CD11CF50102
:10019000EC0DFD1D80818823B9F7EE24FF2471EF5B
:1001A000872E7FEF972E8C0C9D1C60E4662E6CE9E9
:1001B000762E24C080E80E94410085010E0D1F1D8F
:1001C000C0E0D0E0CE018E0D9F1D8C159D051CF466
:1001D000F801808101C080E20E94680021960F5FD3
:1001E0001F4FC031D10571F720E0C3010197F1F72E
:1001F0002F5F2436D1F70894E11CF11CE814F904B0
:10020000CCF2DF91CF911F910F91FF90EF90DF9093
:10021000CF90BF90AF909F908F907F906F900895F8
:100220000E94890080E690E00E94B20081E00E9476
:080230004100F8CFF894FFCF64
:100238005363686F6F6C206F6620436F6D707574C1
:10024800657220456E67696E656572696E672049DB
:100258006E7465726E6174696F6E616C20556E693B
:08026800766572736974790078
:00000001FF
