:100000000C942A000C9447000C9447000C94470071
:100010000C9447000C9447000C9447000C94470044
:100020000C9447000C9447000C9447000C94470034
:100030000C9447000C9447000C9447000C94470024
:100040000C9447000C9447000C9447000C94470014
:100050000C94470011241FBECFE5D8E0DEBFCDBF12
:1000600010E0A0E6B0E0E4EFF0E002C005900D92F1
:10007000AA36B107D9F710E0AAE6B0E001C01D9298
:10008000AB36B107E1F70E9456000C9478000C944F
:10009000000087B3806B87BB8DB180658DB90895F3
:1000A000C4988FB9779BFECFC49A0895CF93DF93FE
:1000B0000E9449007894C0E6D0E080916A00FE0179
:1000C000E80FF11D80810E9450008FEF93ECA9E0B2
:1000D00081509040A040E1F700C0000080916A008C
:1000E0008F5F80936A008A3041F710926A00E5CFF3
:0400F000F894FFCFB2
:0A00F400BF06DBCFE6EDFD07FFEFCE
:00000001FF
