:100000000C942A000C9447000C9447000C94470071
:100010000C9447000C9447000C9447000C94470044
:100020000C9447000C9447000C9448030C94470030
:100030000C9447000C940C040C9447000C9447005B
:100040000C9447000C9447000C9447000C94470014
:100050000C94470011241FBECFE5D8E0DEBFCDBF12
:1000600011E0A0E6B0E0E2E5FFE002C005900D92ED
:10007000AA30B107D9F711E0AAE0B1E001C01D92A2
:10008000AC32B107E1F70E945C020C94A7070C9414
:10009000000089B389B389B389B38FE08ABB99B370
:1000A00099B399B399B38BBB82E08A95F1F700C0FD
:1000B00049B350E0CA010090600002C09595879551
:1000C0000A94E2F780FD14C0E1E6F0E091E09A01C5
:1000D000019002C0359527950A94E2F720FD05C0EE
:1000E0009F5F9430A1F78FEF0895943011F431C0E1
:1000F00090E089B389B389B389B380EF8ABB29B310
:1001000029B329B329B38BBB82E08A95F1F700C0EC
:1001100049B350E09A010090640002C035952795DC
:100120000A94E2F720FD10C0E5E6F0E081E09A01D4
:10013000019002C0359527950A94E2F720FD05C08D
:100140008F5F8430A1F701C080E0990F990F890F6C
:1001500008958FEF089584B38F7084BBAA9AA998ED
:1001600082E08A95F1F700C0AB9A92E09A95F1F798
:1001700000C083B3807F92E09A95F1F700C0AB98FE
:1001800095E09A95F1F70000AB9A92E09A95F1F715
:1001900000C093B392E09A95F1F700C0AB9895E058
:1001A0009A95F1F700008823FCF2AA9884B3806F37
:1001B00084BB0895282F22952F708F70662311F429
:1001C000A99801C0A99A92E09A95F1F700C0AB9A5C
:1001D00095B32295207F9F70922B95BB95E09A95C1
:1001E000F1F70000AB9895E09A95F1F70000AB9A13
:1001F00095B38295807F9F70892B85BB85E08A951A
:10020000F1F70000AB9895E09A95F1F700000E9495
:10021000AB0008951F93182F8FEF96E7A1E0815050
:100220009040A040E1F700C0000084B3806F84BB21
:10023000A39AA19AA29A85B38F7085BBAB98AA980E
:10024000A99800C000C00000AB9AAD9A95E09A95BD
:10025000F1F70000AB98A5E0AA95F1F700000E9425
:10026000AB0088E260E00E94DA00812F8C6060E0E1
:100270000E94DA001F910895CF93DF93EC018881EB
:10028000882339F0219661E00E94DA008991882361
:10029000D1F7DF91CF910895EF92FF920F931F93C3
:1002A000DF93CF9300D000D00F92CDB7DEB77B01A4
:1002B000FE01319625E0DF011D922A95E9F70097AE
:1002C00061F0FE0136962AE030E0B9010E947D041B
:1002D0008293862F972F0097C1F7BFEFEB16BFEFE2
:1002E000FB0669F42981222379F4FE01329600E0AD
:1002F00010E00F5F1F4F21912223D9F307C005E0C3
:1003000010E00E191F0902C000E010E0992324F448
:100310008DE261E00E94DA000530110594F47E015F
:100320000894E11CF11CE00EF11EF70181917F01A0
:10033000805D61E00E94DA000F5F1F4F05301105FC
:10034000A4F30F900F900F900F900F90CF91DF912B
:100350001F910F91FF90EF900895843178F46230EF
:1003600031F0633031F0613029F4806403C08C5E79
:1003700001C08C5A806860E00E94DA00089583B75B
:100380008B6083BF89B7826089BF8AEF8CBF12BE42
:100390000895CF93DF9300D000D000D0EDB7FEB723
:1003A0003196C7EED0E0ADB7BEB71296DC93CE93D0
:1003B000119788E690E09383828320910A0180E17F
:1003C00090E0821B9109958384830E94C6048DB7B7
:1003D0009EB706960FB6F8949EBF0FBE8DBF81E004
:1003E00060E00E94DA0080E060E00E94AD01CE0192
:1003F0000E943C0180E061E00E94AD0188EF90E046
:100400000E943C01DF91CF910895E8EFF0E0CF0129
:10041000409620E22193E817F907E1F710920A01CC
:100420000895882371F028EF30E0F901E80FF11DFD
:1004300090E290838150280F311DF90190838093C1
:100440000A01089590910B0181E0891B80930B01B3
:10045000813011F4A89A0895A8980895CF93DF9356
:1004600081E060E00E94DA008BE790E00E943C01AE
:1004700080910A01C8EFD0E0FE01E80FF11D80E293
:1004800080838AE090E00E94CD03CE010E94D203D7
:100490008FEF94E3ACE081509040A040E1F700C0C2
:1004A00000000E940502DF91CF910895982F915688
:1004B0009A3108F480520895AF92BF92CF92DF92A2
:1004C000EF92FF921F93CF93DF9380E00E940A0187
:1004D00080E895E20E94C2030E94BF0178940E94C6
:1004E000C901A09AA8980F2EF6EDAF2EF0E0BF2E0E
:1004F000F02D0F2EF6E8CF2EF0E0DF2EF02DC8EF16
:10050000D0E080910C01813009F0BFC080910D01D5
:100510008F5F80930D011BBA0E94490080931301E5
:1005200090911401891709F4AAC0803108F0A7C07E
:10053000833029F480910A010E941102A0C0873003
:1005400019F40E9405029BC08B3019F40E9422020C
:1005500096C08F3019F40E942E0291C0809315012D
:100560009091E600891771F11092160110910A011D
:10057000103108F5E12EFF2490E0FC01EE0FFF1F83
:10058000EE0FFF1F8E0F9F1FF601E80FF91F8081EE
:10059000FE01EE0DFF1D808390910B01913031F42F
:1005A0000E945602FE01EE0DFF1D80831F5F109317
:1005B0000A0110920D018091E600909115018917B2
:1005C00009F059C0209116012F5F2093160190E089
:1005D000F501E80FF91F3081231711F4109216016D
:1005E00020910D012B3018F5E0900A01FF240894AA
:1005F000E108F10820911601FC01EE0FFF1FEE0F3C
:10060000FF1FE80FF91FE20FF11DEC0DFD1D8081AA
:10061000FE01EE0DFF1D808390910B01913049F595
:100620000E945602FE01EE0DFF1D808322C0109134
:100630000A011031F0F4E12EFF249C01220F331F38
:10064000220F331F820F931FF601E80FF91F8081DD
:10065000FE01EE0DFF1D808390910B01913031F46E
:100660000E945602FE01EE0DFF1D80831F5F109356
:100670000A0110920D01809115018093E60080918E
:100680001301809314010E94C90110920C0139CF0B
:100690001F920F920FB60F9211248F939F93EF9397
:1006A000FF9380910F018F5F80930F01823319F5C3
:1006B00010920F01809110018F5F8093100184319F
:1006C00011F41092100180910A01803188F4909108
:1006D00010019E3038F4E8EFF0E0E80FF11D8FE5EF
:1006E000808306C0E8EFF0E0E80FF11D80E2808330
:1006F00081E080930C01FF91EF919F918F910F907A
:100700000FBE0F901F901895EF92FF920F931F93BB
:100710007B018C01DC01CB0180569940A040B040A8
:10072000813A28EB920721E0A20720E0B20708F502
:10073000C801B70120EF3FEF4FEF5FEF0E945E046B
:1007400060507C4D8B409F4FEE0CFF1C001F111F13
:10075000EE0CFF1C001F111FA8019701220F331F71
:10076000441F551F220F331F441F551F0E94900422
:1007700002C027E630E029B930BD1F910F91FF90EC
:10078000EF9008950E9484038AB188698AB980B580
:10079000866880BD8BB11BB808959BB195FFFDCFD6
:1007A0008CB90895CF93DF93EC018881882331F0D1
:1007B00021960E94CD0389918823D9F7DF91CF91AB
:1007C00008958AE00E94CD030895E0911101EE237F
:1007D00029F0F0E0EA5EFE4F808108958DE00895F3
:1007E000662371F0E7E1F1E0A82FB92FCF01019660
:1007F0006150860F911D21912D93E817F907D9F7C4
:10080000E7E1F1E0CF01449620E22193E817F907F0
:10081000E1F71092120108951F920F920FB60F92F6
:1008200011242F933F934F935F936F937F938F93F5
:100830009F93AF93BF93EF93FF938CB180932B0162
:1008400080911101882311F40E94E10380912B0112
:100850000E94CD0380912B018A3031F41092110156
:1008600081E08093120116C0883041F4809111011B
:10087000882381F08150809311010CC09091110167
:10088000943140F4E7E1F1E0E90FF11D80839F5FCF
:1008900090931101FF91EF91BF91AF919F918F9133
:1008A0007F916F915F914F913F912F910F900FBE6C
:1008B0000F901F901895809112010895629FD001AA
:1008C000739FF001829FE00DF11D649FE00DF11D0B
:1008D000929FF00D839FF00D749FF00D659FF00DBA
:1008E0009927729FB00DE11DF91F639FB00DE11DA7
:1008F000F91FBD01CF011124089597FB092E07268A
:100900000AD077FD04D02ED006D000201AF47095BE
:1009100061957F4F0895F6F7909581959F4F0895C3
:10092000A1E21A2EAA1BBB1BFD010DC0AA1FBB1FF3
:10093000EE1FFF1FA217B307E407F50720F0A21B65
:10094000B30BE40BF50B661F771F881F991F1A94D2
:1009500069F760957095809590959B01AC01BD01FC
:10096000CF010895AA1BBB1B51E107C0AA1FBB1FE3
:10097000A617B70710F0A61BB70B881F991F5A952B
:10098000A9F780959095BC01CD010895AEE0B0E047
:10099000ECECF4E00C947E070D891E8986E08C83D4
:1009A0001A8309838FEF9FE79E838D839E01275EC5
:1009B0003F4FCE0101966F89788DA9010E94E9040D
:1009C000EF81F885E00FF11F10822E96E4E00C9481
:1009D0009A07ACE0B0E0EFEEF4E00C9470076C0125
:1009E0001B018A01FC0117821682838181FFD1C11C
:1009F0002E010894411C511CF6019381F10193FDD5
:100A0000859193FF81911F01882309F4BEC185322E
:100A100039F493FD859193FF81911F01853229F46B
:100A200090E0B6010E94E606E7CFEE24FF2420E026
:100A30002032B0F48B3269F08C3228F4803251F0DD
:100A4000833271F40BC08D3239F0803349F4216068
:100A50002CC02260246029C0286027C0206125C0E6
:100A600027FD2CC0382F30533A3098F426FF08C0A9
:100A70008E2D880FE82EEE0CEE0CE80EE30E15C05E
:100A80008F2D880FF82EFF0CFF0CF80EF30E20624E
:100A90000CC08E3221F426FD78C1206406C08C364D
:100AA00011F4206802C0883649F4F10193FD859164
:100AB00093FF81911F01882309F0BACF982F955495
:100AC000933018F09052933028F40C5F1F4FFFE3DF
:100AD000F9830DC0833631F0833771F0833509F027
:100AE00060C022C0F801808189830E5F1F4F4201E0
:100AF00071E0A72EB12C16C062E0662E712C600E3C
:100B0000711EF8018080918026FF03C06E2D70E079
:100B100002C06FEF7FEFC4012C870E94DB065C01EF
:100B200083012C852F7717C052E0652E712C600E43
:100B3000711EF8018080918026FF03C06E2D70E049
:100B400002C06FEF7FEFC4012C870E94D0065C01CA
:100B50002C852068830123FD20C008C080E290E03E
:100B6000B6012C870E94E606FA942C858F2D90E022
:100B7000A816B90698F311C0F40127FD859127FF47
:100B800081914F0190E0B6012C870E94E6062C85EA
:100B9000F110FA940894A108B108A114B10461F706
:100BA000F1C0843611F0893649F527FF08C0F801F5
:100BB00060817181828193810C5F1F4F09C0F801B0
:100BC00060817181882777FD8095982F0E5F1F4F78
:100BD0004FE6B42EB22297FF09C09095809570958C
:100BE00061957F4F8F4F9F4FF0E8BF2AA2012AE007
:100BF00030E00E941207782E741845C0853731F412
:100C00003FEEB32EB2222AE030E025C099EFB92E94
:100C1000B2228F36C1F0803720F4883509F0B5C094
:100C20000DC0803721F0883709F0AFC002C020E145
:100C3000B22AB4FE0BC084E0B82A08C0B4FE09C0D2
:100C4000E6E0BE2A06C028E030E005C020E130E042
:100C500002C020E132E0B7FE08C0F8016081718176
:100C6000828193810C5F1F4F07C0F8016081718101
:100C700080E090E00E5F1F4FA2010E941207782EC5
:100C80007418FFE7BF22B6FE0BC02EEFB2227E140F
:100C900038F4B4FE07C0B2FC05C08FEEB82202C023
:100CA000A72C01C0AE2C8B2D90E0B4FE0DC0FE0130
:100CB000E70DF11D2081203319F4E9EEBE2209C0B1
:100CC000A394B2FE06C004C086789070009709F025
:100CD000A3948B2C9924B3FC14C0B0FE0FC0AF14A6
:100CE00028F4E72CEF0CEA18AF2C08C0E72C06C05C
:100CF00080E290E0B6010E94E606A394AF14C0F330
:100D000004C0AF1410F4FA1801C0FF2484FE0FC011
:100D100080E390E0B6010E94E60682FE1FC081FEDD
:100D200003C088E590E010C088E790E00DC0C401E2
:100D300086789070009791F081FC02C080E201C03B
:100D40008BE2B7FC8DE290E0B6010E94E60606C099
:100D500080E390E0B6010E94E606EA947E14C0F3B8
:100D60007A94F201E70DF11D808190E0B6010E94B6
:100D7000E6067720A9F706C080E290E0B6010E945F
:100D8000E606FA94FF20C1F737CEF60126813781B7
:100D900002C02FEF3FEFC9012C96E2E10C948C07C3
:100DA000FC010590615070400110D8F78095909536
:100DB0008E0F9F1F0895FC0161507040019001103B
:100DC000D8F7809590958E0F9F1F08950F931F93CE
:100DD000CF93DF938C01EB018B8181FF1BC082FFDE
:100DE0000DC02E813F818C819D812817390764F4C5
:100DF000E881F9810193F983E88306C0E885F985E4
:100E0000802F0995009731F48E819F8101969F83F1
:100E10008E8302C00FEF1FEFC801DF91CF911F91AA
:100E20000F910895FA01AA27283051F1203181F15C
:100E3000E8946F936E7F6E5F7F4F8F4F9F4FAF4FE2
:100E4000B1E03ED0B4E03CD0670F781F891F9A1FF5
:100E5000A11D680F791F8A1F911DA11D6A0F711DA9
:100E6000811D911DA11D20D009F468943F912AE0B5
:100E7000269F11243019305D3193DEF6CF0108959D
:100E8000462F4770405D4193B3E00FD0C9F7F6CFCE
:100E9000462F4F70405D4A3318F0495D31FD405296
:100EA000419302D0A9F7EACFB4E0A695979587952C
:100EB00077956795BA95C9F700976105710508950B
:100EC0009B01AC010A2E06945795479537952795B7
:100ED000BA95C9F7620F731F841F951FA01D08954F
:100EE0002F923F924F925F926F927F928F929F923A
:100EF000AF92BF92CF92DF92EF92FF920F931F9328
:100F0000CF93DF93CDB7DEB7CA1BDB0B0FB6F894D8
:100F1000DEBF0FBECDBF09942A88398848885F8418
:100F20006E847D848C849B84AA84B984C884DF8089
:100F3000EE80FD800C811B81AA81B981CE0FD11D6D
:100F40000FB6F894DEBF0FBECDBFED010895F89443
:020F5000FFCFD1
:100F52000405060700010203546578743A20202034
:100F6200202020253032642F31360053656E6469AB
:100F72006E672E2E2E003A3B3F5E31616263322055
:100F82006465663320787878787867686934206A8F
:100F92006B6C35206D6E6F3620787878787870714A
:100FA20072733774757638207778797A39787878E9
:100FB20078782A242140262030202020232B2D2F10
:100FC200257878787878050404010404040105047E
:100FD20005010502050120546578743A202020207D
:100FE200202031362F3136002020202020202020C2
:0A0FF20020202020202020200000F5
:00000001FF
