:100000000C942A000C9447000C9447000C94470071
:100010000C9447000C9447000C9447000C94470044
:100020000C9447000C9447000C9447000C94570024
:100030000C9447000C9447000C9447000C94470024
:100040000C9447000C9447000C9447000C94470014
:100050000C94470011241FBECFE5D8E0DEBFCDBF12
:1000600012E0A0E6B0E0E6E0F1E002C005900D92FB
:10007000A23DB107D9F712E0A2EDB2E001C01D9296
:10008000A43DB107E1F70E9451000C9481000C944B
:10009000000083B7896683BF1CBE89B7816089BFB2
:1000A0000895BB9AC3980E9449007894FFCF1F928D
:1000B0000F920FB60F9211242F938F939F93EF936C
:1000C000FF938091D2029091D302FC01E05AFF4F3E
:1000D00020812CBF01969093D3028093D20222E01C
:1000E0008137920721F41092D3021092D202FF912D
:1000F000EF919F918F912F910F900FBE0F901F90B6
:060100001895F894FFCFF2
:100106000001020203040506070708090A0B0B0C87
:100116000D0E0F10101112131414151617181919A5
:100126001A1B1C1D1D1E1F202122222324252626C4
:100136002728292A2B2B2C2D2E2F2F3031323333E3
:10014600343536373838393A3B3C3C3D3E3F404102
:10015600414243444545464748494A4A4B4C4D4E21
:100166004E4F5051525353545556575758595A5B40
:100176005C5C5D5E5F60606162636465656667685E
:1001860069696A6B6C6D6E6E6F707172727374757D
:1001960076777778797A7B7B7C7D7E7F808081829B
:1001A6008384848586878888898A8B8C8D8D8E8FBB
:1001B6009091919293949596969798999A9A9B9CDA
:1001C6009D9E9F9FA0A1A2A3A3A4A5A6A7A8A8A9F8
:1001D600AAABACACADAEAFB0B1B1B2B3B4B5B5B617
:1001E600B7B8B9BABABBBCBDBEBEBFC0C1C2C3C335
:1001F600C4C5C6C7C7C8C9CACBCCCCCDCECFD0D054
:10020600D1D2D3D4D5D5D6D7D8D9D9DADBDCDDDD72
:10021600DEDFE0E1E2E2E3E4E5E6E6E7E8E9EAEB91
:10022600EBECEDEEEFEFF0F1F2F3F4F4F5F6F7F8B0
:10023600F8F9FAFBFCFDFDFEFFFFFEFDFDFCFBFAF7
:10024600F9F8F8F7F6F5F4F4F3F2F1F0EFEFEEED76
:10025600ECEBEBEAE9E8E7E6E6E5E4E3E2E2E1E037
:10026600DFDEDDDDDCDBDAD9D9D8D7D6D5D5D4D3F8
:10027600D2D1D0D0CFCECDCCCCCBCAC9C8C7C7C6B9
:10028600C5C4C3C3C2C1C0BFBEBEBDBCBBBABAB97A
:10029600B8B7B6B5B5B4B3B2B1B1B0AFAEADACAC3C
:1002A600ABAAA9A8A8A7A6A5A4A3A3A2A1A09F9FFD
:1002B6009E9D9C9B9A9A99989796969594939291BF
:1002C60091908F8E8D8D8C8B8A8988888786858480
:1002D6008483828180807F7E7D7C7B7B7A79787740
:1002E6007776757473727271706F6E6E6D6C6B6A01
:1002F600696968676665656463626160605F5E5DC3
:100306005C5C5B5A59585757565554535352515083
:100316004F4E4E4D4C4B4A4A494847464545444345
:10032600424141403F3E3D3C3C3B3A393838373606
:10033600353433333231302F2F2E2D2C2B2A2A29C8
:1003460028272626252423222221201F1E1D1D1C88
:100356001B1A191918171615141413121110100F49
:100366000E0D0C0B0B0A090807070605040302020B
:02037600010084
:00000001FF
