:100000000C942A000C9434000C9434000C943400AA
:100010000C9434000C9434000C9434000C94340090
:100020000C9434000C9434000C9434000C94340080
:100030000C9434000C9434000C9434000C94340070
:100040000C9434000C9434000C9434000C94340060
:100050000C94340011241FBECFE5D8E0DEBFCDBF25
:100060000E9436000C9468000C9400008FEF81BB56
:1000700020E030E061E070E040E951E0CB01022E89
:1000800002C0880F991F0A94E2F782BB80E197E2D1
:10009000FA013197F1F70197D9F72F5F3F4F2830D9
:1000A000310561F727E061E070E040E951E0CB0104
:1000B000022E02C0880F991F0A94E2F782BB80E1EA
:1000C00097E2FA013197F1F70197D9F72150EFCF75
:0400D000F894FFCFD2
:00000001FF
