:100000000C942A000C943C000C943C000C943C0092
:100010000C943C000C943C000C943C000C943C0070
:100020000C943C000C943C000C943C000C943C0060
:100030000C943C000C943C000C943C000C943C0050
:100040000C943C000C943C000C943C000C943C0040
:100050000C943C0011241FBECFE5D8E0DEBFCDBF1D
:1000600010E0A0E6B0E001C01D92A136B107E1F7B3
:100070000E944D000C9461000C94000087B3806BCB
:1000800087BB8DB180658DB90895C498809160005B
:100090008FB9779BFECFC49A08950E943E00789452
:1000A000809160008F5F809360000E9445008FEF19
:1000B00099EFA0E081509040A040E1F700C000001F
:0600C000EFCFF894FFCF22
:00000001FF
