:100000000C942A000C9440000C9452000C94640050
:100010000C9434000C9434000C9434000C94340090
:100020000C9434000C9434000C9434000C94340080
:100030000C9434000C9434000C9434000C94340070
:100040000C9434000C9434000C9434000C94340060
:100050000C94340011241FBECFE5D8E0DEBFCDBF25
:100060000E9436000C9476000C9400008FEF8ABB3F
:100070008BE085BF80E484BF80EE8BBF7894FFCF98
:100080001F920F920FB60F9211248F939F938BB3F1
:1000900091E089278BBB9F918F910F900FBE0F909E
:1000A0001F9018951F920F920FB60F9211248F93E5
:1000B0009F938BB392E089278BBB9F918F910F9079
:1000C0000FBE0F901F9018951F920F920FB60F92B0
:1000D00011248F939F938BB394E089278BBB9F91BF
:1000E0008F910F900FBE0F901F901895F894FFCF2F
:00000001FF
