:100000000C942A000C943C000C943C000C943C0092
:100010000C943C000C943C000C943C000C943C0070
:100020000C943C000C943C000C943C000C943C0060
:100030000C943C000C943C000C943C000C943C0050
:100040000C943C000C943C000C943C000C943C0040
:100050000C943C0011241FBECFE5D8E0DEBFCDBF1D
:1000600010E0A0E6B0E001C01D92A836B107E1F7AC
:100070000E945E000C94CB000C94000090E0FC0108
:10008000EA59FF4F208130E08C599F4FFC0180815D
:10009000281B310981E02130310509F080E0089505
:1000A00087B3806B87BB8DB180658DB90895C49887
:1000B0008FB9779BFECF8FB1C49A0895AF92BF924C
:1000C000CF92DF92EF92FF920F931F93CF93DF9324
:1000D00084B38FEF84BB15BA91B381BB12BA0E946F
:1000E0005000C6E6D0E0FF24F3948E010F5F1F4F4F
:1000F000EE246894E1F80F2EF4E6CF2EF0E0DF2E28
:10010000F02D56010894A11CB11C1092630086B317
:1001100081708883F092630086B390E0959587950F
:100120008170F8018083E092630080E00E943E00CD
:10013000882329F0809160008F5F809360008F2D6D
:100140000E943E00882329F08091600081508093B6
:1001500060008091610090916000891729F095BB43
:10016000892F9093610002C0809361009881F6010D
:100170009083F8019081F5019083E09263000E94E2
:1001800057008093620082BB8FE19EE40197F1F7F4
:0A01900000C00000BACFF894FFCFC2
:00000001FF
