:100000000C942A000C9447000C9447000C94470071
:100010000C9447000C9447000C9488010C94470002
:100020000C9447000C9447000C9447000C94470034
:100030000C9447000C9447000C9447000C94470024
:100040000C9447000C9447000C9447000C94470014
:100050000C94470011241FBECFE5D8E0DEBFCDBF12
:1000600010E0A0E6B0E0E6EDF0E102C005900D92F0
:10007000A23AB107D9F710E0A2EAB0E001C01D92A0
:10008000A53BB107E1F70E9474010C9469080C9438
:1000900000008EB581648EBD89B7806289BF1DBCAA
:1000A0001CBC1092AC0008958F929F92AF92BF92A9
:1000B000CF92DF92EF92FF921F93CF93DF93C09086
:1000C000B100D090B200E090B300F090B400C7014E
:1000D000B6010E941D040E94B403162F8DB79EB76F
:1000E00008970FB6F8949EBF0FBE8DBFEDB7FEB751
:1000F00031960F2EFFE7AF2EF0E0BF2EF02DADB7FB
:10010000BEB71296BC92AE92119780E690E09383B0
:1001100082838091A2009091A300A091A400B0914D
:10012000A50084839583A683B7830E948805CDB7F5
:10013000DEB721960F2EF0E98F2EF0E09F2EF02DE6
:10014000EDB7FEB7928281828BE690E09B838A8333
:100150001C831D82612F70E080E090E00E94E0032C
:100160009B01AC01C701B6010E94E70220E030E02C
:1001700040E251E40E94C1040E94B4036E831F82D6
:100180000E94880585E280939F008DB79EB70896F0
:100190000FB6F8949EBF0FBE8DBF81E060E00E9455
:1001A000020280E060E00E94D502C5010E94640264
:1001B00080E061E00E94D502C4010E946402DF91E8
:1001C000CF911F91FF90EF90DF90CF90BF90AF90B5
:1001D0009F908F900895AF92BF92CF92DF92EF924F
:1001E000FF920F931F938091A8009091A9002091F6
:1001F000AA003091AB008217930798F420953095B0
:10020000820F931F9093B0008093AF008091A6005F
:100210009091A700280F391F3093AE002093AD00B6
:1002200022C04091A6005091A7004817590778F4C2
:10023000821B930B9093B0008093AF002095309574
:10024000420F531F5093AE004093AD000CC0821B71
:10025000930B9093B0008093AF00421B530B5093CD
:10026000AE004093AD00E090AD00F090AE0000E035
:1002700010E060E074E284EF90E0A80197010E9432
:1002800037052093A2003093A3004093A40050931D
:10029000A5006091AF007091B00080E090E00E94F6
:1002A000E00320E030E048EC52E40E94C1045B012E
:1002B0006C01C801B7010E94E0039B01AC01C601BB
:1002C000B5010E944C036093B1007093B20080931B
:1002D000B3009093B4001F910F91FF90EF90DF90C7
:1002E000CF90BF90AF90089580E00E9432020E94AC
:1002F000490078940E9454000E9454008FEF90E7C8
:10030000A2E081509040A040E1F700C00000F4CF8F
:100310001F920F920FB60F9211242F933F934F937A
:100320005F936F937F938F939F93AF93BF93EF935D
:10033000FF938091AC008F5F8093AC00813051F4CB
:1003400086B597B59093AB008093AA008EB58F7B4E
:100350008EBD16C0823051F486B597B59093A90032
:100360008093A8008EB580648EBD0AC0833041F4AE
:1003700086B597B59093A7008093A6001DBC1CBCC2
:100380000E94EB00FF91EF91BF91AF919F918F91F0
:100390007F916F915F914F913F912F910F900FBE81
:1003A0000F901F90189584B38F7084BBA99AA8985A
:1003B00082E08A95F1F700C0AA9A92E09A95F1F747
:1003C00000C083B3807F92E09A95F1F700C0AA98AD
:1003D00095E09A95F1F70000AA9A92E09A95F1F7C4
:1003E00000C093B392E09A95F1F700C0AA9895E007
:1003F0009A95F1F700008823FCF2A99884B3806FE6
:1004000084BB0895282F22952F708F70662311F4D6
:10041000A89801C0A89A92E09A95F1F700C0AA9A0C
:1004200095B32295207F9F70922B95BB95E09A956E
:10043000F1F70000AA9895E09A95F1F70000AA9AC2
:1004400095B38295807F9F70892B85BB85E08A95C7
:10045000F1F70000AA9895E09A95F1F700000E9444
:10046000D30108951F93182F8FEF96E7A1E08150D5
:100470009040A040E1F700C0000084B3806F84BBCF
:10048000A29AA09AA19A85B38F7085BBAA98A998C1
:10049000A89800C000C00000AA9AAD9A95E09A956D
:1004A000F1F70000AA98A5E0AA95F1F700000E94D4
:1004B000D30188E260E00E940202812F8C6060E03C
:1004C0000E9402021F910895CF93DF93EC0188816F
:1004D000882339F0219661E00E94020289918823E5
:1004E000D1F7DF91CF910895EF92FF920F931F9371
:1004F000DF93CF9300D000D00F92CDB7DEB77B0152
:10050000FE01319625E0DF011D922A95E9F700975B
:1005100061F0FE0136962AE030E0B9010E94240520
:100520008293862F972F0097C1F7BFEFEB16BFEF8F
:10053000FB0669F42981222379F4FE01329600E05A
:1005400010E00F5F1F4F21912223D9F307C005E070
:1005500010E00E191F0902C000E010E0992324F4F6
:100560008DE261E00E9402020530110594F47E01E3
:100570000894E11CF11CE00EF11EF70181917F014E
:10058000805D61E00E9402020F5F1F4F0530110580
:10059000A4F30F900F900F900F900F90CF91DF91D9
:1005A0001F910F91FF90EF900895843178F462309D
:1005B00031F0633031F0613029F4806403C08C5E27
:1005C00001C08C5A806860E00E9402020895505871
:1005D000BB27AA270ED084C175D130F07AD120F084
:1005E00031F49F3F11F41EF46AC10EF4E095E7FB6D
:1005F00037C1E92F86D180F3BA17620773078407E2
:10060000950718F071F49EF5B5C10EF4E0950B2E28
:10061000BA2FA02D0B01B90190010C01CA01A00154
:100620001124FF27591B99F0593F50F4503E68F1AF
:100630001A16F040A22F232F342F4427585FF3CFF0
:10064000469537952795A795F0405395C9F77EF4C1
:100650001F16BA0B620B730B840BBAF09150A1F00A
:10066000FF0FBB1F661F771F881FC2F70EC0BA0F90
:10067000621F731F841F48F4879577956795B79518
:10068000F7959E3F08F0B3CF9395880F08F0992710
:10069000EE0F9795879508950CD022C11AD140F09E
:1006A00011D130F021F45F3F19F0DAC0511163C16C
:1006B00006C127D198F39923C9F35523B1F3951BAC
:1006C000550BBB27AA2762177307840738F09F5F73
:1006D0005F4F220F331F441FAA1FA9F333D00E2EE2
:1006E0003AF0E0E830D091505040E695001CCAF74F
:1006F00029D0FE2F27D0660F771F881FBB1F261714
:1007000037074807AB07B0E809F0BB0B802DBF01E6
:10071000FF2793585F4F2AF09E3F510568F0A0C015
:100720002AC15F3FECF3983EDCF386957795679599
:10073000B795F7959F5FC9F7880F911D9695879597
:1007400097F90895E1E0660F771F881FBB1F6217B6
:1007500073078407BA0720F0621B730B840BBA0B74
:10076000EE1F88F7E0950895D4D088F09F5790F059
:10077000B92F9927B751A0F0D1F0660F771F881FC6
:10078000991F1AF0BA95C9F712C0B13081F0F2D0B2
:10079000B1E00895EFC0672F782F8827B85F39F050
:1007A000B93FCCF3869577956795B395D9F73EF425
:1007B00090958095709561957F4F8F4F9F4F0895CD
:1007C000E89409C097FB3EF49095809570956195EB
:1007D0007F4F8F4F9F4F9923A9F0F92F96E9BB27A1
:1007E0009395F695879577956795B795F111F8CF1D
:1007F000FAF4BB0F11F460FF1BC06F5F7F4F8F4F88
:100800009F4F16C0882311F096E911C0772321F07D
:100810009EE8872F762F05C0662371F096E8862F15
:1008200070E060E02AF09A95660F771F881FDAF76C
:10083000880F9695879597F9089585D080F09F3712
:1008400040F491110EF097C060E070E080E89FEBFB
:10085000089526F41B16611D711D811D07C021C05E
:1008600097F99F6780E870E060E00895882371F44D
:10087000772321F09850872B762F07C0662311F439
:1008800099270DC09051862B70E060E02AF09A9570
:10089000660F771F881FDAF7880F9695879597F967
:1008A00008959F3F31F0915020F487957795679593
:1008B000B795880F911D9695879597F908959FEFA5
:1008C00080EC089500240A941616170618060906E7
:1008D000089500240A9412161306140605060895B6
:1008E000092E0394000C11F4882352F0BB0F40F43E
:1008F000BF2B11F460FF04C06F5F7F4F8F4F9F4F7E
:10090000089557FD9058440F551F59F05F3F71F0FF
:100910004795880F97FB991F61F09F3F79F0879566
:100920000895121613061406551FF2CF4695F1DFEF
:1009300008C0161617061806991FF1CF869571057F
:10094000610508940895E5DFA0F0BEE7B91788F4C3
:10095000BB279F3860F41616B11D672F782F8827A4
:10096000985FF7CF869577956795B11D93959639E2
:10097000C8F30895E894BB2766277727CB0197F93A
:1009800008950BD0ADCF9EDF28F0A3DF18F095239C
:1009900009F066CF94CF1124EECFB3DFA0F3959F7B
:1009A000D1F3950F50E0551F629FF001729FBB2756
:1009B000F00DB11D639FAA27F00DB11DAA1F649F02
:1009C0006627B00DA11D661F829F2227B00DA11DB5
:1009D000621F739FB00DA11D621F839FA00D611D3B
:1009E000221F749F3327A00D611D231F849F600D5C
:1009F000211D822F762F6A2F11249F5750408AF095
:100A0000E1F088234AF0EE0FFF1FBB1F661F771F20
:100A1000881F91505040A9F79E3F510570F020CF9C
:100A2000AACF5F3FECF3983EDCF386957795679508
:100A3000B795F795E7959F5FC1F7FE2B880F911D3E
:100A40009695879597F9089597FB092E07260AD062
:100A500077FD04D027D006D000201AF47095619558
:100A60007F4F0895F6F7909581959F4F089597FBD6
:100A7000092E05260ED057FD04D028D00AD0001C20
:100A800038F450954095309521953F4F4F4F5F4F2B
:100A90000895F6F790958095709561957F4F8F4FEB
:100AA0009F4F0895AA1BBB1B51E107C0AA1FBB1F84
:100AB000A617B70710F0A61BB70B881F991F5A95EA
:100AC000A9F780959095BC01CD010895A1E21A2E59
:100AD000AA1BBB1BFD010DC0AA1FBB1FEE1FFF1FE2
:100AE000A217B307E407F50720F0A21BB30BE40B32
:100AF000F50B661F771F881F991F1A9469F7609579
:100B00007095809590959B01AC01BD01CF01089532
:100B1000AEE0B0E0EEE8F5E00C9440080D891E89E7
:100B200086E08C831A8309838FEF9FE79E838D83F2
:100B30009E01275E3F4FCE0101966F89788DA901F6
:100B40000E94AB05EF81F885E00FF11F10822E9611
:100B5000E4E00C945C08ACE0B0E0E1EBF5E00C9470
:100B600032086C011B018A01FC0117821682838105
:100B700081FFD1C12E010894411C511CF6019381C3
:100B8000F10193FD859193FF81911F01882309F461
:100B9000BEC1853239F493FD859193FF81911F0188
:100BA000853229F490E0B6010E94A807E7CFEE2431
:100BB000FF2420E02032B0F48B3269F08C3228F42C
:100BC000803251F0833271F40BC08D3239F08033B2
:100BD00049F421602CC02260246029C0286027C00D
:100BE000206125C027FD2CC0382F30533A3098F4AF
:100BF00026FF08C08E2D880FE82EEE0CEE0CE80EB6
:100C0000E30E15C08F2D880FF82EFF0CFF0CF80E89
:100C1000F30E20620CC08E3221F426FD78C12064D0
:100C200006C08C3611F4206802C0883649F4F10100
:100C300093FD859193FF81911F01882309F0BACF1D
:100C4000982F9554933018F09052933028F40C5FFD
:100C50001F4FFFE3F9830DC0833631F0833771F006
:100C6000833509F060C022C0F801808189830E5F5E
:100C70001F4F420171E0A72EB12C16C062E0662E14
:100C8000712C600E711EF8018080918026FF03C0D8
:100C90006E2D70E002C06FEF7FEFC4012C870E94C1
:100CA0009D075C0183012C852F7717C052E0652ECC
:100CB000712C600E711EF8018080918026FF03C0A8
:100CC0006E2D70E002C06FEF7FEFC4012C870E9491
:100CD00092075C012C852068830123FD20C008C099
:100CE00080E290E0B6012C870E94A807FA942C8538
:100CF0008F2D90E0A816B90698F311C0F40127FDD6
:100D0000859127FF81914F0190E0B6012C870E94C9
:100D1000A8072C85F110FA940894A108B108A11431
:100D2000B10461F7F1C0843611F0893649F527FF27
:100D300008C0F80160817181828193810C5F1F4F2F
:100D400009C0F80160817181882777FD8095982F0F
:100D50000E5F1F4F4FE6B42EB22297FF09C0909549
:100D60008095709561957F4F8F4F9F4FF0E8BF2A18
:100D7000A2012AE030E00E94D407782E741845C002
:100D8000853731F43FEEB32EB2222AE030E025C0A1
:100D900099EFB92EB2228F36C1F0803720F4883512
:100DA00009F0B5C00DC0803721F0883709F0AFC019
:100DB00002C020E1B22AB4FE0BC084E0B82A08C009
:100DC000B4FE09C0E6E0BE2A06C028E030E005C057
:100DD00020E130E002C020E132E0B7FE08C0F801B7
:100DE00060817181828193810C5F1F4F07C0F80180
:100DF0006081718180E090E00E5F1F4FA2010E9430
:100E0000D407782E7418FFE7BF22B6FE0BC02EEF72
:100E1000B2227E1438F4B4FE07C0B2FC05C08FEED7
:100E2000B82202C0A72C01C0AE2C8B2D90E0B4FEDE
:100E30000DC0FE01E70DF11D2081203319F4E9EE0C
:100E4000BE2209C0A394B2FE06C004C0867890708A
:100E5000009709F0A3948B2C9924B3FC14C0B0FE26
:100E60000FC0AF1428F4E72CEF0CEA18AF2C08C021
:100E7000E72C06C080E290E0B6010E94A807A39488
:100E8000AF14C0F304C0AF1410F4FA1801C0FF246B
:100E900084FE0FC080E390E0B6010E94A80782FEA6
:100EA0001FC081FE03C088E590E010C088E790E095
:100EB0000DC0C40186789070009791F081FC02C04B
:100EC00080E201C08BE2B7FC8DE290E0B6010E94A7
:100ED000A80706C080E390E0B6010E94A807EA9444
:100EE0007E14C0F37A94F201E70DF11D808190E049
:100EF000B6010E94A8077720A9F706C080E290E01B
:100F0000B6010E94A807FA94FF20C1F737CEF60178
:100F10002681378102C02FEF3FEFC9012C96E2E115
:100F20000C944E08FC010590615070400110D8F7F8
:100F3000809590958E0F9F1F0895FC016150704021
:100F400001900110D8F7809590958E0F9F1F0895FE
:100F50000F931F93CF93DF938C01EB018B8181FF64
:100F60001BC082FF0DC02E813F818C819D8128177F
:100F7000390764F4E881F9810193F983E88306C0B5
:100F8000E885F985802F0995009731F48E819F813E
:100F900001969F838E8302C00FEF1FEFC801DF9180
:100FA000CF911F910F910895FA01AA27283051F18E
:100FB000203181F1E8946F936E7F6E5F7F4F8F4F8A
:100FC0009F4FAF4FB1E03ED0B4E03CD0670F781FE9
:100FD000891F9A1FA11D680F791F8A1F911DA11DCE
:100FE0006A0F711D811D911DA11D20D009F4689407
:100FF0003F912AE0269F11243019305D3193DEF6AF
:10100000CF010895462F4770405D4193B3E00FD064
:10101000C9F7F6CF462F4F70405D4A3318F0495D4F
:1010200031FD4052419302D0A9F7EACFB4E0A69532
:101030009795879577956795BA95C9F70097610554
:10104000710508959B01AC010A2E069457954795AA
:1010500037952795BA95C9F7620F731F841F951F9F
:10106000A01D08952F923F924F925F926F927F92B0
:101070008F929F92AF92BF92CF92DF92EF92FF92A8
:101080000F931F93CF93DF93CDB7DEB7CA1BDB0B54
:101090000FB6F894DEBF0FBECDBF09942A883988F9
:1010A00048885F846E847D848C849B84AA84B98400
:1010B000C884DF80EE80FD800C811B81AA81B9810C
:1010C000CE0FD11D0FB6F894DEBF0FBECDBFED0120
:0610D0000895F894FFCF23
:1010D600467265713A253964487A00447574793ADE
:1010E6002020202020202532642E2531645F0046F2
:1010F60072657175656E63793A7878786B487A00AF
:10110600447574793A20202020202078782E78257E
:021116000000D7
:00000001FF
