:100000000C942A000C9434000C9434000C943400AA
:100010000C9434000C9434000C9434000C94340090
:100020000C9434000C9434000C9434000C94340080
:100030000C9434000C9434000C9434000C94340070
:100040000C9436000C9434000C9434000C9434005E
:100050000C94340011241FBECFE5D8E0DEBFCDBF25
:100060000E9447000C9452000C9400001F920F92C3
:100070000FB60F9211248F9384B182BB85B185BBDB
:10008000369A8F910F900FBE0F901F9018958FEF9B
:1000900084BB81BB1ABA78948FE886B980EC87B9A3
:0800A000369AFFCFF894FFCF60
:00000001FF
