:100000000C942A000C943C000C943C000C943C0092
:100010000C943C000C943C000C943C000C943C0070
:100020000C943C000C943C000C943C000C943C0060
:100030000C94BE000C943C000C943C000C943C00CE
:100040000C943C000C943C000C943C000C943C0040
:100050000C943C0011241FBECFE5D8E0DEBFCDBF1D
:1000600010E0A0E6B0E001C01D92AA36B107E1F7AA
:100070000E9455000C94EB000C94000090E0FC01F1
:10008000E859FF4F208130E08A599F4FFC01808161
:10009000281B310981E02130310509F080E0089505
:1000A0008DB1806C8DB9BE9A0895AF92BF92CF92F8
:1000B000DF92EF92FF920F931F93CF93DF9384B35E
:1000C0008FEF84BB15BA91B381BB12BA0E94500066
:1000D0007894C8E6D0E0FF24F3948E010F5F1F4FA1
:1000E000EE246894E1F80F2EF6E6CF2EF0E0DF2E36
:1000F000F02D56010894A11CB11C1092650086B326
:1001000081708883F092650086B390E0959587951D
:100110008170F8018083E092650080E00E943E00DB
:10012000882329F0809162008F5F809362008F2D79
:100130000E943E00882329F08091620081508093C4
:1001400062009091630080916200981721F082BB59
:100150008093630002C0909363008881F6018083DE
:10016000F8018081F50180838091640085BB8FE177
:100170009EE40197F1F700C00000BFCF1F920F92DD
:100180000FB60F9211242F938F939F932FB18091CD
:1001900061008F5F80936100909162009FB9813010
:1001A00031F4221F2227221F209360000CC08230CE
:1001B00051F480916000813021F42093640010920A
:1001C0006000109261009F918F912F910F900FBE50
:0A01D0000F901F901895F894FFCFD0
:00000001FF
