:100000000C942A000C9434000C9434000C943400AA
:100010000C9434000C9434000C9434000C94340090
:100020000C9434000C9434000C9434000C94340080
:100030000C9434000C943A000C9434000C9434006A
:100040000C9434000C9434000C9434000C94340060
:100050000C94340011241FBECFE5D8E0DEBFCDBF25
:100060000E945A000C945F000C9400005D9BFECF30
:100070008CB908951F920F920FB60F9211248F938F
:100080008CB188BB88B38F5F88BB88B35D9BFECF84
:100090008CB98F910F900FBE0F901F901895889874
:1000A00088E98AB986E080BD81E080BD8FE989B9A1
:1000B000789408958FEF87BB0E944F00FFCFF8948C
:0200C000FFCF70
:00000001FF
