:100000000C942A000C9447000C9447000C94470071
:100010000C9447000C9447000C9447000C94AE00DD
:100020000C9447000C9447000C9447000C94470034
:100030000C9447000C9447000C9447000C94470024
:100040000C9447000C9447000C9447000C94470014
:100050000C94470011241FBECFE5D8E0DEBFCDBF12
:1000600010E0A0E6B0E0ECEEF9E002C005900D92E1
:10007000A837B107D9F710E0A8E7B0E001C01D929A
:10008000AE37B107E1F70E949F000C94F4040C9482
:100090000000CF93DF938CB59DB590937D00809346
:1000A0007C0081E060E00E94070180E060E00E9447
:1000B000DA018DB79EB70A970FB6F8949EBF0FBEB0
:1000C0008DBFEDB7FEB73196CDE6D0E0ADB7BEB788
:1000D0001296DC93CE93119780E690E0938382830F
:1000E00080917A0090917B00958384838091780041
:1000F000909179009783868380917C0090917D0018
:10010000918780870E9413028DB79EB70A960FB61B
:10011000F8949EBF0FBE8DBFCE010E946901DF9192
:10012000CF9108958EB58F608EBD89B7806189BFEC
:1001300087EE93E09BBD8ABD1DBC1CBC089580E08A
:100140000E9437010E94920078940E9449008FE536
:100150009AEE0197F1F700C00000F7CF1F920F92BF
:100160000FB60F9211242F938F939F938091780055
:10017000909179000196909379008093780023E024
:10018000883E920769F480917A0090917B000196F5
:1001900090937B0080937A001092790010927800FF
:1001A0009F918F912F910F900FBE0F901F901895D8
:1001B00081B38F7081BB919A909882E08A95F1F714
:1001C00000C0929A92E09A95F1F700C080B3807FC8
:1001D00092E09A95F1F700C0929895E09A95F1F720
:1001E0000000929A92E09A95F1F700C090B392E0E5
:1001F0009A95F1F700C0929895E09A95F1F7000072
:100200008823FCF2919881B3806F81BB0895282FD9
:1002100022952F708F70662311F4909801C0909AE8
:1002200092E09A95F1F700C0929A92B32295207FBE
:100230009F70922B92BB95E09A95F1F700009298EF
:1002400095E09A95F1F70000929A92B38295807F9B
:100250009F70892B82BB85E08A95F1F70000929808
:1002600095E09A95F1F700000E94D80008951F9339
:10027000182F8FEF96E7A1E081509040A040E1F762
:1002800000C0000081B3806F81BB8A9A889A899AE6
:1002900082B38F7082BB92989198909800C000C0F2
:1002A0000000929A959A95E09A95F1F7000092983D
:1002B000A5E0AA95F1F700000E94D80088E260E06E
:1002C0000E940701812F8C6060E00E9407011F914E
:1002D0000895CF93DF93EC018881882339F021962C
:1002E00061E00E94070189918823D1F7DF91CF91C6
:1002F0000895EF92FF920F931F93DF93CF9300D057
:1003000000D00F92CDB7DEB77B01FE01319625E01C
:10031000DF011D922A95E9F7009761F0FE013696FC
:100320002AE030E0B9010E94EC018293862F972FDA
:100330000097C1F7BFEFEB16BFEFFB0669F4298109
:10034000222379F4FE01329600E010E00F5F1F4F88
:1003500021912223D9F307C005E010E00E191F09EF
:1003600002C000E010E0992324F48DE261E00E94D5
:1003700007010530110594F47E010894E11CF11C7D
:10038000E00EF11EF70181917F01805D61E00E9426
:1003900007010F5F1F4F05301105A4F30F900F9059
:1003A0000F900F900F90CF91DF911F910F91FF90C1
:1003B000EF900895843178F4623031F0633031F099
:1003C000613029F4806403C08C5E01C08C5A80685F
:1003D00060E00E940701089597FB092E07260AD0C6
:1003E00077FD04D00CD006D000201AF470956195EA
:1003F0007F4F0895F6F7909581959F4F0895AA1B1A
:10040000BB1B51E107C0AA1FBB1FA617B70710F0FF
:10041000A61BB70B881F991F5A95A9F78095909531
:10042000BC01CD010895AEE0B0E0E9E1F2E00C944A
:10043000CB040D891E8986E08C831A8309838FEF94
:100440009FE79E838D839E01275E3F4FCE010196DD
:100450006F89788DA9010E943602EF81F885E00F3F
:10046000F11F10822E96E4E00C94E704ACE0B0E0BB
:10047000ECE3F2E00C94BD046C011B018A01FC0169
:1004800017821682838181FFD1C12E010894411CFD
:10049000511CF6019381F10193FD859193FF8191A8
:1004A0001F01882309F4BEC1853239F493FD85917B
:1004B00093FF81911F01853229F490E0B6010E94DB
:1004C0003304E7CFEE24FF2420E02032B0F48B3257
:1004D00069F08C3228F4803251F0833271F40BC011
:1004E0008D3239F0803349F421602CC022602460C1
:1004F00029C0286027C0206125C027FD2CC0382FC7
:1005000030533A3098F426FF08C08E2D880FE82E1D
:10051000EE0CEE0CE80EE30E15C08F2D880FF82EB2
:10052000FF0CFF0CF80EF30E20620CC08E3221F48B
:1005300026FD78C1206406C08C3611F4206802C004
:10054000883649F4F10193FD859193FF81911F0154
:10055000882309F0BACF982F9554933018F0905211
:10056000933028F40C5F1F4FFFE3F9830DC08336EF
:1005700031F0833771F0833509F060C022C0F80193
:10058000808189830E5F1F4F420171E0A72EB12C3D
:1005900016C062E0662E712C600E711EF80180801C
:1005A000918026FF03C06E2D70E002C06FEF7FEFD9
:1005B000C4012C870E9428045C0183012C852F77BD
:1005C00017C052E0652E712C600E711EF8018080FC
:1005D000918026FF03C06E2D70E002C06FEF7FEFA9
:1005E000C4012C870E941D045C012C8520688301B6
:1005F00023FD20C008C080E290E0B6012C870E9455
:100600003304FA942C858F2D90E0A816B90698F340
:1006100011C0F40127FD859127FF81914F0190E0E2
:10062000B6012C870E9433042C85F110FA940894AB
:10063000A108B108A114B10461F7F1C0843611F02A
:10064000893649F527FF08C0F801608171818281F0
:1006500093810C5F1F4F09C0F80160817181882769
:1006600077FD8095982F0E5F1F4F4FE6B42EB22274
:1006700097FF09C090958095709561957F4F8F4F3A
:100680009F4FF0E8BF2AA2012AE030E00E945F04F9
:10069000782E741845C0853731F43FEEB32EB22260
:1006A0002AE030E025C099EFB92EB2228F36C1F092
:1006B000803720F4883509F0B5C00DC0803721F0AF
:1006C000883709F0AFC002C020E1B22AB4FE0BC0E7
:1006D00084E0B82A08C0B4FE09C0E6E0BE2A06C01D
:1006E00028E030E005C020E130E002C020E132E047
:1006F000B7FE08C0F80160817181828193810C5F2F
:100700001F4F07C0F8016081718180E090E00E5FAB
:100710001F4FA2010E945F04782E7418FFE7BF22CA
:10072000B6FE0BC02EEFB2227E1438F4B4FE07C022
:10073000B2FC05C08FEEB82202C0A72C01C0AE2CBF
:100740008B2D90E0B4FE0DC0FE01E70DF11D208160
:10075000203319F4E9EEBE2209C0A394B2FE06C00C
:1007600004C086789070009709F0A3948B2C99248C
:10077000B3FC14C0B0FE0FC0AF1428F4E72CEF0C8C
:10078000EA18AF2C08C0E72C06C080E290E0B60162
:100790000E943304A394AF14C0F304C0AF1410F448
:1007A000FA1801C0FF2484FE0FC080E390E0B60178
:1007B0000E94330482FE1FC081FE03C088E590E0E2
:1007C00010C088E790E00DC0C40186789070009753
:1007D00091F081FC02C080E201C08BE2B7FC8DE2A7
:1007E00090E0B6010E94330406C080E390E0B601B9
:1007F0000E943304EA947E14C0F37A94F201E70D68
:10080000F11D808190E0B6010E9433047720A9F7A2
:1008100006C080E290E0B6010E943304FA94FF2003
:10082000C1F737CEF6012681378102C02FEF3FEFA7
:10083000C9012C96E2E10C94D904FC0105906150A9
:1008400070400110D8F7809590958E0F9F1F0895E6
:10085000FC016150704001900110D8F7809590958F
:100860008E0F9F1F08950F931F93CF93DF938C01DB
:10087000EB018B8181FF1BC082FF0DC02E813F8168
:100880008C819D812817390764F4E881F9810193EF
:10089000F983E88306C0E885F985802F09950097DC
:1008A00031F48E819F8101969F838E8302C00FEF6A
:1008B0001FEFC801DF91CF911F910F910895FA01A9
:1008C000AA27283051F1203181F1E8946F936E7F8F
:1008D0006E5F7F4F8F4F9F4FAF4FB1E03ED0B4E080
:1008E0003CD0670F781F891F9A1FA11D680F791FC1
:1008F0008A1F911DA11D6A0F711D811D911DA11DD2
:1009000020D009F468943F912AE0269F11243019E1
:10091000305D3193DEF6CF010895462F4770405D7C
:100920004193B3E00FD0C9F7F6CF462F4F70405D2B
:100930004A3318F0495D31FD4052419302D0A9F786
:10094000EACFB4E0A6959795879577956795BA9580
:10095000C9F700976105710508959B01AC010A2E46
:1009600006945795479537952795BA95C9F7620F1D
:10097000731F841F951FA01D08952F923F924F92C1
:100980005F926F927F928F929F92AF92BF92CF921F
:10099000DF92EF92FF920F931F93CF93DF93CDB728
:1009A000DEB7CA1BDB0B0FB6F894DEBF0FBECDBFA0
:1009B00009942A88398848885F846E847D848C8471
:1009C0009B84AA84B984C884DF80EE80FD800C817A
:1009D0001B81AA81B981CE0FD11D0FB6F894DEBF5D
:0C09E0000FBECDBFED010895F894FFCFCD
:1009EC0025303364253033642530336400787878CF
:0809FC00787878787878000023
:00000001FF
