:100000000C942A000C9447000C9447000C94470071
:100010000C9447000C9447000C9447000C94470044
:100020000C9447000C9447000C9447000C945A0021
:100030000C9447000C9447000C9447000C94470024
:100040000C9447000C9447000C9447000C94470014
:100050000C94470011241FBECFE5D8E0DEBFCDBF12
:1000600010E0A0E6B0E0E8E7F1E002C005900D92F4
:10007000AA36B107D9F710E0AAE6B0E001C01D9298
:10008000AE36B107E1F70E9449000C94BA000C9417
:1000900000008FEF84BB81BB87BB8ABB15BA12BA45
:1000A0001BBA18BA82EB82BF85E083BF81E089BFAB
:1000B0007894FFCF1F920F920FB60F9211248F9357
:1000C0009F93EF93FF9382EB82BF80916C0090919E
:1000D0006D00019690936D0080936C0084369105BD
:1000E0000CF43FC010926D0010926C0090916B0068
:1000F000913079F0913028F0923099F0933001F5F9
:1001000018C0E0916A00F0E0E05AFF4F808185BBA3
:1001100017C0E0916A00F0E0E05AFF4F808182BB97
:100120000FC0E0916A00F0E0E05AFF4F808188BB89
:1001300007C0E0916A00F0E0E05AFF4F80818BBB7E
:1001400080916A008F5F80936A00893050F010922E
:100150006A00892F8F5F80936B00843010F01092BB
:100160006B00FF91EF919F918F910F900FBE0F90B9
:080170001F901895F894FFCFD1
:0A017800010204081020408000007E
:00000001FF
