:100000000C942A000C943F000C943F000C943F0089
:100010000C943F000C943F000C943F000C943F0064
:100020000C943F000C943F000C943F000C943F0054
:100030000C943F000C943F000C943F000C943F0044
:100040000C943F000C943F000C943F000C943F0034
:100050000C943F0011241FBECFE5D8E0DEBFCDBF1A
:1000600010E0A0E6B0E0E2EDF0E002C005900D92F5
:10007000A436B107D9F70E9441000C9467000C9494
:100080000000D79ADF988FEF93EDA0E38150904066
:10009000A040E1F700C000008091600090916100F5
:1000A000A0916200B09163000097A105B10571F0C5
:1000B000DF9A0197A109B1098093600090936100D4
:1000C000A0936200B0936300DF98E6CFFFCFF8946F
:0200D000FFCF60
:0400D200002D3101CB
:00000001FF
