:100000000C942A000C9434000C9434000C943400AA
:100010000C9434000C9434000C9434000C94340090
:100020000C9434000C9434000C9434000C94340080
:100030000C9434000C9434000C9434000C94340070
:100040000C9434000C9434000C9434000C94340060
:100050000C94340011241FBECFE5D8E0DEBFCDBF25
:100060000E9445000C945B000C9400005D9BFECF49
:100070008CB908955F9BFECF8CB1089588E18AB951
:1000800086E080BD83E389B908958FEF87BB8EEF4B
:1000900081BB88E18AB986E080BD83E389B95F9B33
:1000A000FECF8CB188BB88B38F5F88BB88B35D9B64
:0A00B000FECF8CB9F4CFF894FFCF17
:00000001FF
