:100000000C942A000C94F4000C9447000C944700C4
:100010000C9447000C9447000C9447000C94470044
:100020000C9447000C9447000C9447000C94470034
:100030000C9447000C9447000C9447000C94470024
:100040000C9447000C9447000C9447000C94470014
:100050000C94470011241FBECFE5D8E0DEBFCDBF12
:1000600010E0A0E6B0E0ECECFAE002C005900D92E2
:10007000A838B107D9F710E0A8E8B0E001C01D9298
:10008000AC38B107E1F70E94B7000C9464050C94FA
:1000900000008BB780648BBF85B7826085BF0895F1
:1000A00000D000D000D0EDB7FEB7319686E690E0E4
:1000B000ADB7BEB712969C938E93119780E690E0F1
:1000C00093838283809188009091890095838483B3
:1000D0000E948302809165002DB73EB72A5F3F4F93
:1000E0000FB6F8943EBF0FBE2DBF882361F483E4A2
:1000F0008093820087E58093830080E28093840070
:10010000809385000DC0813059F481E48093820092
:1001100087E58093830080E280938400809385004C
:1001200080918A00882371F0823061F083E58093AA
:10013000820084E5809383008FE48093840080E5CF
:100140008093850081E060E00E94770180E060E0BC
:100150000E944A0286E690E00E94D90180E061E0B8
:100160000E944A0287E790E00E94D901089581B376
:10017000806381BB82B38F7C82BB80E00E94A70139
:100180000E944900789480918A00882309F4959A06
:1001900080918A00813081F40E94500080918A0011
:1001A0008F5F80938A008FEF97EAA1E6815090409D
:1001B000A040E1F700C0000080918A00823009F47D
:1001C000949A80918A00833019F40E945000FFCFE6
:1001D0000E9450008FEF99EFA0E081509040A04026
:1001E000E1F700C00000CFCF1F920F920FB60F9221
:1001F00011248F939F9380B3869586958695817001
:1002000080938B00882369F0809188009091890009
:100210000197909389008093880081E08093650026
:100220000BC080918800909189000196909389007D
:1002300080938800109265008091880090918900D9
:100240008436910561F480918A00882341F482B359
:100250008F7C82BB80918A008F5F80938A0080911F
:10026000880090918900009761F480918A00823023
:1002700041F482B38F7C82BB80918A008F5F809330
:100280008A009F918F910F900FBE0F901F9018952D
:1002900084B38F7084BBA99AA89882E08A95F1F7FD
:1002A00000C0AA9A92E09A95F1F700C083B3807FCC
:1002B00092E09A95F1F700C0AA9895E09A95F1F727
:1002C0000000AA9A92E09A95F1F700C093B392E0E9
:1002D0009A95F1F700C0AA9895E09A95F1F7000079
:1002E0008823FCF2A99884B3806F84BB0895282FDB
:1002F00022952F708F70662311F4A89801C0A89AD8
:1003000092E09A95F1F700C0AA9A95B32295207FC2
:100310009F70922B95BB95E09A95F1F70000AA98F3
:1003200095E09A95F1F70000AA9A95B38295807F9F
:100330009F70892B85BB85E08A95F1F70000AA980C
:1003400095E09A95F1F700000E94480108951F93E7
:10035000182F8FEF96E7A1E081509040A040E1F781
:1003600000C0000084B3806F84BBA29AA09AA19AB7
:1003700085B38F7085BBAA98A998A89800C000C0C3
:100380000000AA9AAD9A95E09A95F1F70000AA9814
:10039000A5E0AA95F1F700000E94480188E260E01C
:1003A0000E947701812F8C6060E00E9477011F918D
:1003B0000895CF93DF93EC018881882339F021964B
:1003C00061E00E94770189918823D1F7DF91CF9175
:1003D0000895EF92FF920F931F93DF93CF9300D076
:1003E00000D00F92CDB7DEB77B01FE01319625E03C
:1003F000DF011D922A95E9F7009761F0FE0136961C
:100400002AE030E0B9010E945C028293862F972F88
:100410000097C1F7BFEFEB16BFEFFB0669F4298128
:10042000222379F4FE01329600E010E00F5F1F4FA7
:1004300021912223D9F307C005E010E00E191F090E
:1004400002C000E010E0992324F48DE261E00E94F4
:1004500077010530110594F47E010894E11CF11C2C
:10046000E00EF11EF70181917F01805D61E00E9445
:1004700077010F5F1F4F05301105A4F30F900F9008
:100480000F900F900F90CF91DF911F910F91FF90E0
:10049000EF900895843178F4623031F0633031F0B8
:1004A000613029F4806403C08C5E01C08C5A80687E
:1004B00060E00E947701089597FB092E07260AD075
:1004C00077FD04D00CD006D000201AF47095619509
:1004D0007F4F0895F6F7909581959F4F0895AA1B39
:1004E000BB1B51E107C0AA1FBB1FA617B70710F01F
:1004F000A61BB70B881F991F5A95A9F78095909551
:10050000BC01CD010895AEE0B0E0E9E8F2E00C9462
:100510003B050D891E8986E08C831A8309838FEF42
:100520009FE79E838D839E01275E3F4FCE010196FC
:100530006F89788DA9010E94A602EF81F885E00FEE
:10054000F11F10822E96E4E00C945705ACE0B0E069
:10055000ECEAF2E00C942D056C011B018A01FC0110
:1005600017821682838181FFD1C12E010894411C1C
:10057000511CF6019381F10193FD859193FF8191C7
:100580001F01882309F4BEC1853239F493FD85919A
:1005900093FF81911F01853229F490E0B6010E94FA
:1005A000A304E7CFEE24FF2420E02032B0F48B3206
:1005B00069F08C3228F4803251F0833271F40BC030
:1005C0008D3239F0803349F421602CC022602460E0
:1005D00029C0286027C0206125C027FD2CC0382FE6
:1005E00030533A3098F426FF08C08E2D880FE82E3D
:1005F000EE0CEE0CE80EE30E15C08F2D880FF82ED2
:10060000FF0CFF0CF80EF30E20620CC08E3221F4AA
:1006100026FD78C1206406C08C3611F4206802C023
:10062000883649F4F10193FD859193FF81911F0173
:10063000882309F0BACF982F9554933018F0905230
:10064000933028F40C5F1F4FFFE3F9830DC083360E
:1006500031F0833771F0833509F060C022C0F801B2
:10066000808189830E5F1F4F420171E0A72EB12C5C
:1006700016C062E0662E712C600E711EF80180803B
:10068000918026FF03C06E2D70E002C06FEF7FEFF8
:10069000C4012C870E9498045C0183012C852F776C
:1006A00017C052E0652E712C600E711EF80180801B
:1006B000918026FF03C06E2D70E002C06FEF7FEFC8
:1006C000C4012C870E948D045C012C852068830165
:1006D00023FD20C008C080E290E0B6012C870E9474
:1006E000A304FA942C858F2D90E0A816B90698F3F0
:1006F00011C0F40127FD859127FF81914F0190E002
:10070000B6012C870E94A3042C85F110FA9408945A
:10071000A108B108A114B10461F7F1C0843611F049
:10072000893649F527FF08C0F8016081718182810F
:1007300093810C5F1F4F09C0F80160817181882788
:1007400077FD8095982F0E5F1F4F4FE6B42EB22293
:1007500097FF09C090958095709561957F4F8F4F59
:100760009F4FF0E8BF2AA2012AE030E00E94CF04A8
:10077000782E741845C0853731F43FEEB32EB2227F
:100780002AE030E025C099EFB92EB2228F36C1F0B1
:10079000803720F4883509F0B5C00DC0803721F0CE
:1007A000883709F0AFC002C020E1B22AB4FE0BC006
:1007B00084E0B82A08C0B4FE09C0E6E0BE2A06C03C
:1007C00028E030E005C020E130E002C020E132E066
:1007D000B7FE08C0F80160817181828193810C5F4E
:1007E0001F4F07C0F8016081718180E090E00E5FCB
:1007F0001F4FA2010E94CF04782E7418FFE7BF227A
:10080000B6FE0BC02EEFB2227E1438F4B4FE07C041
:10081000B2FC05C08FEEB82202C0A72C01C0AE2CDE
:100820008B2D90E0B4FE0DC0FE01E70DF11D20817F
:10083000203319F4E9EEBE2209C0A394B2FE06C02B
:1008400004C086789070009709F0A3948B2C9924AB
:10085000B3FC14C0B0FE0FC0AF1428F4E72CEF0CAB
:10086000EA18AF2C08C0E72C06C080E290E0B60181
:100870000E94A304A394AF14C0F304C0AF1410F4F7
:10088000FA1801C0FF2484FE0FC080E390E0B60197
:100890000E94A30482FE1FC081FE03C088E590E091
:1008A00010C088E790E00DC0C40186789070009772
:1008B00091F081FC02C080E201C08BE2B7FC8DE2C6
:1008C00090E0B6010E94A30406C080E390E0B60168
:1008D0000E94A304EA947E14C0F37A94F201E70D17
:1008E000F11D808190E0B6010E94A3047720A9F752
:1008F00006C080E290E0B6010E94A304FA94FF20B3
:10090000C1F737CEF6012681378102C02FEF3FEFC6
:10091000C9012C96E2E10C944905FC010590615057
:1009200070400110D8F7809590958E0F9F1F089505
:10093000FC016150704001900110D8F780959095AE
:100940008E0F9F1F08950F931F93CF93DF938C01FA
:10095000EB018B8181FF1BC082FF0DC02E813F8187
:100960008C819D812817390764F4E881F98101930E
:10097000F983E88306C0E885F985802F09950097FB
:1009800031F48E819F8101969F838E8302C00FEF89
:100990001FEFC801DF91CF911F910F910895FA01C8
:1009A000AA27283051F1203181F1E8946F936E7FAE
:1009B0006E5F7F4F8F4F9F4FAF4FB1E03ED0B4E09F
:1009C0003CD0670F781F891F9A1FA11D680F791FE0
:1009D0008A1F911DA11D6A0F711D811D911DA11DF1
:1009E00020D009F468943F912AE0269F1124301901
:1009F000305D3193DEF6CF010895462F4770405D9C
:100A00004193B3E00FD0C9F7F6CF462F4F70405D4A
:100A10004A3318F0495D31FD4052419302D0A9F7A5
:100A2000EACFB4E0A6959795879577956795BA959F
:100A3000C9F700976105710508959B01AC010A2E65
:100A400006945795479537952795BA95C9F7620F3C
:100A5000731F841F951FA01D08952F923F924F92E0
:100A60005F926F927F928F929F92AF92BF92CF923E
:100A7000DF92EF92FF920F931F93CF93DF93CDB747
:100A8000DEB7CA1BDB0B0FB6F894DEBF0FBECDBFBF
:100A900009942A88398848885F846E847D848C8490
:100AA0009B84AA84B984C884DF80EE80FD800C8199
:100AB0001B81AA81B981CE0FD11D0FB6F894DEBF7C
:0C0AC0000FBECDBFED010895F894FFCFEC
:100ACC002530366400FF787878787878787878787C
:100ADC0078787878787800446972656374696F6E99
:080AEC003A2053544F50000062
:00000001FF
